{
  "_format": "hh-sol-artifact-1",
  "contractName": "LaunchpadFactory",
  "sourceName": "contracts/LaunchpadFactory.sol",
  "abi": [
    {
      "anonymous": false,
      "inputs": [
        {
          "indexed": true,
          "internalType": "address",
          "name": "owner",
          "type": "address"
        },
        {
          "indexed": true,
          "internalType": "address",
          "name": "launchpad",
          "type": "address"
        },
        {
          "indexed": true,
          "internalType": "address",
          "name": "token",
          "type": "address"
        }
      ],
      "name": "LaunchpadCreated",
      "type": "event"
    },
    {
      "anonymous": false,
      "inputs": [
        {
          "indexed": true,
          "internalType": "address",
          "name": "previousOwner",
          "type": "address"
        },
        {
          "indexed": true,
          "internalType": "address",
          "name": "newOwner",
          "type": "address"
        }
      ],
      "name": "OwnershipTransferred",
      "type": "event"
    },
    {
      "inputs": [
        {
          "internalType": "address",
          "name": "token",
          "type": "address"
        },
        {
          "internalType": "uint256",
          "name": "totalAmount",
          "type": "uint256"
        },
        {
          "internalType": "uint256",
          "name": "saleStart",
          "type": "uint256"
        },
        {
          "internalType": "uint256",
          "name": "saleEnd",
          "type": "uint256"
        },
        {
          "internalType": "uint256",
          "name": "vestingStart",
          "type": "uint256"
        },
        {
          "internalType": "uint256",
          "name": "vestingEnd",
          "type": "uint256"
        },
        {
          "internalType": "uint256",
          "name": "ratio",
          "type": "uint256"
        }
      ],
      "name": "createLaunchpad",
      "outputs": [
        {
          "internalType": "address",
          "name": "",
          "type": "address"
        }
      ],
      "stateMutability": "payable",
      "type": "function"
    },
    {
      "inputs": [],
      "name": "owner",
      "outputs": [
        {
          "internalType": "address",
          "name": "",
          "type": "address"
        }
      ],
      "stateMutability": "view",
      "type": "function"
    },
    {
      "inputs": [],
      "name": "renounceOwnership",
      "outputs": [],
      "stateMutability": "nonpayable",
      "type": "function"
    },
    {
      "inputs": [
        {
          "internalType": "address",
          "name": "newOwner",
          "type": "address"
        }
      ],
      "name": "transferOwnership",
      "outputs": [],
      "stateMutability": "nonpayable",
      "type": "function"
    },
    {
      "inputs": [],
      "name": "withdraw",
      "outputs": [],
      "stateMutability": "nonpayable",
      "type": "function"
    }
  ],
  "bytecode": "0x608060405234801561001057600080fd5b5061002d61002261003260201b60201c565b61003a60201b60201c565b6100fe565b600033905090565b60008060009054906101000a900473ffffffffffffffffffffffffffffffffffffffff169050816000806101000a81548173ffffffffffffffffffffffffffffffffffffffff021916908373ffffffffffffffffffffffffffffffffffffffff1602179055508173ffffffffffffffffffffffffffffffffffffffff168173ffffffffffffffffffffffffffffffffffffffff167f8be0079c531659141344cd1fd0a4f28419497f9722a3daafe3b4186f6b6457e060405160405180910390a35050565b611f368061010d6000396000f3fe608060405260043610620000505760003560e01c80633ccfd60b1462000055578063715018a6146200006f578063766d904214620000895780638da5cb5b14620000bf578063f2fde38b14620000ef575b600080fd5b3480156200006257600080fd5b506200006d6200011d565b005b3480156200007c57600080fd5b506200008762000186565b005b620000a76004803603810190620000a19190620005f6565b6200019e565b604051620000b69190620006ba565b60405180910390f35b348015620000cc57600080fd5b50620000d76200033f565b604051620000e69190620006ba565b60405180910390f35b348015620000fc57600080fd5b506200011b6004803603810190620001159190620006d7565b62000368565b005b62000127620003f2565b60004790506000620001386200033f565b90508073ffffffffffffffffffffffffffffffffffffffff166108fc839081150290604051600060405180830381858888f1935050505015801562000181573d6000803e3d6000fd5b505050565b62000190620003f2565b6200019c600062000477565b565b6000662386f26fc100003414620001ec576040517f08c379a0000000000000000000000000000000000000000000000000000000008152600401620001e3906200076a565b60405180910390fd5b84861062000231576040517f08c379a00000000000000000000000000000000000000000000000000000000081526004016200022890620007dc565b60405180910390fd5b82841062000276576040517f08c379a00000000000000000000000000000000000000000000000000000000081526004016200026d906200084e565b60405180910390fd5b6000888888888888886040516200028d9062000543565b6200029f979695949392919062000881565b604051809103906000f080158015620002bc573d6000803e3d6000fd5b5090508873ffffffffffffffffffffffffffffffffffffffff168173ffffffffffffffffffffffffffffffffffffffff163373ffffffffffffffffffffffffffffffffffffffff167f93e8beb44821f7ab2a28ab1d483e36c7e32452e97430128582eb65f13e6b636c60405160405180910390a480915050979650505050505050565b60008060009054906101000a900473ffffffffffffffffffffffffffffffffffffffff16905090565b62000372620003f2565b600073ffffffffffffffffffffffffffffffffffffffff168173ffffffffffffffffffffffffffffffffffffffff1603620003e4576040517f08c379a0000000000000000000000000000000000000000000000000000000008152600401620003db9062000974565b60405180910390fd5b620003ef8162000477565b50565b620003fc6200053b565b73ffffffffffffffffffffffffffffffffffffffff166200041c6200033f565b73ffffffffffffffffffffffffffffffffffffffff161462000475576040517f08c379a00000000000000000000000000000000000000000000000000000000081526004016200046c90620009e6565b60405180910390fd5b565b60008060009054906101000a900473ffffffffffffffffffffffffffffffffffffffff169050816000806101000a81548173ffffffffffffffffffffffffffffffffffffffff021916908373ffffffffffffffffffffffffffffffffffffffff1602179055508173ffffffffffffffffffffffffffffffffffffffff168173ffffffffffffffffffffffffffffffffffffffff167f8be0079c531659141344cd1fd0a4f28419497f9722a3daafe3b4186f6b6457e060405160405180910390a35050565b600033905090565b6114f88062000a0983390190565b600080fd5b600073ffffffffffffffffffffffffffffffffffffffff82169050919050565b6000620005838262000556565b9050919050565b620005958162000576565b8114620005a157600080fd5b50565b600081359050620005b5816200058a565b92915050565b6000819050919050565b620005d081620005bb565b8114620005dc57600080fd5b50565b600081359050620005f081620005c5565b92915050565b600080600080600080600060e0888a03121562000618576200061762000551565b5b6000620006288a828b01620005a4565b97505060206200063b8a828b01620005df565b96505060406200064e8a828b01620005df565b9550506060620006618a828b01620005df565b9450506080620006748a828b01620005df565b93505060a0620006878a828b01620005df565b92505060c06200069a8a828b01620005df565b91505092959891949750929550565b620006b48162000576565b82525050565b6000602082019050620006d16000830184620006a9565b92915050565b600060208284031215620006f057620006ef62000551565b5b60006200070084828501620005a4565b91505092915050565b600082825260208201905092915050565b7f302e303120455448204665652069732072657175697265640000000000000000600082015250565b60006200075260188362000709565b91506200075f826200071a565b602082019050919050565b60006020820190508181036000830152620007858162000743565b9050919050565b7f496e76616c69642073616c6520706572696f6400000000000000000000000000600082015250565b6000620007c460138362000709565b9150620007d1826200078c565b602082019050919050565b60006020820190508181036000830152620007f781620007b5565b9050919050565b7f496e76616c69642076657374696e6720706572696f6400000000000000000000600082015250565b60006200083660168362000709565b91506200084382620007fe565b602082019050919050565b60006020820190508181036000830152620008698162000827565b9050919050565b6200087b81620005bb565b82525050565b600060e08201905062000898600083018a620006a9565b620008a7602083018962000870565b620008b6604083018862000870565b620008c5606083018762000870565b620008d4608083018662000870565b620008e360a083018562000870565b620008f260c083018462000870565b98975050505050505050565b7f4f776e61626c653a206e6577206f776e657220697320746865207a65726f206160008201527f6464726573730000000000000000000000000000000000000000000000000000602082015250565b60006200095c60268362000709565b91506200096982620008fe565b604082019050919050565b600060208201905081810360008301526200098f816200094d565b9050919050565b7f4f776e61626c653a2063616c6c6572206973206e6f7420746865206f776e6572600082015250565b6000620009ce60208362000709565b9150620009db8262000996565b602082019050919050565b6000602082019050818103600083015262000a0181620009bf565b905091905056fe60806040523480156200001157600080fd5b50604051620014f8380380620014f8833981810160405281019062000037919062000240565b620000576200004b620000cf60201b60201c565b620000d760201b60201c565b86600160006101000a81548173ffffffffffffffffffffffffffffffffffffffff021916908373ffffffffffffffffffffffffffffffffffffffff16021790555085600281905550846003819055508360048190555082600581905550816006819055508060078190555050505050505050620002f3565b600033905090565b60008060009054906101000a900473ffffffffffffffffffffffffffffffffffffffff169050816000806101000a81548173ffffffffffffffffffffffffffffffffffffffff021916908373ffffffffffffffffffffffffffffffffffffffff1602179055508173ffffffffffffffffffffffffffffffffffffffff168173ffffffffffffffffffffffffffffffffffffffff167f8be0079c531659141344cd1fd0a4f28419497f9722a3daafe3b4186f6b6457e060405160405180910390a35050565b600080fd5b600073ffffffffffffffffffffffffffffffffffffffff82169050919050565b6000620001cd82620001a0565b9050919050565b620001df81620001c0565b8114620001eb57600080fd5b50565b600081519050620001ff81620001d4565b92915050565b6000819050919050565b6200021a8162000205565b81146200022657600080fd5b50565b6000815190506200023a816200020f565b92915050565b600080600080600080600060e0888a0312156200026257620002616200019b565b5b6000620002728a828b01620001ee565b9750506020620002858a828b0162000229565b9650506040620002988a828b0162000229565b9550506060620002ab8a828b0162000229565b9450506080620002be8a828b0162000229565b93505060a0620002d18a828b0162000229565b92505060c0620002e48a828b0162000229565b91505092959891949750929550565b6111f580620003036000396000f3fe6080604052600436106100f35760003560e01c8063ab0bcc411161008a578063de58bafa11610059578063de58bafa146102c3578063e6bd67d614610300578063f2fde38b1461033d578063fc0c546a14610366576100f3565b8063ab0bcc4114610214578063c10b93581461023f578063c884ef831461026a578063d96a094a146102a7576100f3565b8063715018a6116100c6578063715018a61461017c57806371ca337d1461019357806384a1931f146101be5780638da5cb5b146101e9576100f3565b80631a39d8ef146100f8578063254800d4146101235780633ccfd60b1461014e5780634e71d92d14610165575b600080fd5b34801561010457600080fd5b5061010d610391565b60405161011a9190610b25565b60405180910390f35b34801561012f57600080fd5b50610138610397565b6040516101459190610b25565b60405180910390f35b34801561015a57600080fd5b5061016361039d565b005b34801561017157600080fd5b5061017a610401565b005b34801561018857600080fd5b5061019161054d565b005b34801561019f57600080fd5b506101a8610561565b6040516101b59190610b25565b60405180910390f35b3480156101ca57600080fd5b506101d3610567565b6040516101e09190610b25565b60405180910390f35b3480156101f557600080fd5b506101fe61056d565b60405161020b9190610b81565b60405180910390f35b34801561022057600080fd5b50610229610596565b6040516102369190610b25565b60405180910390f35b34801561024b57600080fd5b5061025461059c565b6040516102619190610b25565b60405180910390f35b34801561027657600080fd5b50610291600480360381019061028c9190610bcd565b6105a2565b60405161029e9190610b25565b60405180910390f35b6102c160048036038101906102bc9190610c26565b6105ba565b005b3480156102cf57600080fd5b506102ea60048036038101906102e59190610bcd565b610769565b6040516102f79190610b25565b60405180910390f35b34801561030c57600080fd5b5061032760048036038101906103229190610bcd565b6107c5565b6040516103349190610b25565b60405180910390f35b34801561034957600080fd5b50610364600480360381019061035f9190610bcd565b6107dd565b005b34801561037257600080fd5b5061037b610860565b6040516103889190610cb2565b60405180910390f35b60025481565b60055481565b6103a5610886565b600047905060006103b461056d565b90508073ffffffffffffffffffffffffffffffffffffffff166108fc839081150290604051600060405180830381858888f193505050501580156103fc573d6000803e3d6000fd5b505050565b600554421015610446576040517f08c379a000000000000000000000000000000000000000000000000000000000815260040161043d90610d2a565b60405180910390fd5b600061045133610904565b905080600960003373ffffffffffffffffffffffffffffffffffffffff1673ffffffffffffffffffffffffffffffffffffffff16815260200190815260200160002060008282546104a29190610d79565b92505081905550600160009054906101000a900473ffffffffffffffffffffffffffffffffffffffff1673ffffffffffffffffffffffffffffffffffffffff1663a9059cbb33836040518363ffffffff1660e01b8152600401610506929190610dad565b6020604051808303816000875af1158015610525573d6000803e3d6000fd5b505050506040513d601f19601f820116820180604052508101906105499190610e0e565b5050565b610555610886565b61055f6000610960565b565b60075481565b60065481565b60008060009054906101000a900473ffffffffffffffffffffffffffffffffffffffff16905090565b60035481565b60045481565b60096020528060005260406000206000915090505481565b60035442101580156105ce57506004544211155b61060d576040517f08c379a000000000000000000000000000000000000000000000000000000000815260040161060490610e87565b60405180910390fd5b60008111610650576040517f08c379a000000000000000000000000000000000000000000000000000000000815260040161064790610ef3565b60405180910390fd5b806002541015610695576040517f08c379a000000000000000000000000000000000000000000000000000000000815260040161068c90610f5f565b60405180910390fd5b6000600754826106a59190610fae565b90506000811180156106b75750348111155b6106f6576040517f08c379a00000000000000000000000000000000000000000000000000000000081526004016106ed9061102b565b60405180910390fd5b81600860003373ffffffffffffffffffffffffffffffffffffffff1673ffffffffffffffffffffffffffffffffffffffff16815260200190815260200160002060008282546107459190610d79565b92505081905550816002600082825461075e919061104b565b925050819055505050565b600061077482610a24565b600860008473ffffffffffffffffffffffffffffffffffffffff1673ffffffffffffffffffffffffffffffffffffffff168152602001908152602001600020546107be919061104b565b9050919050565b60086020528060005260406000206000915090505481565b6107e5610886565b600073ffffffffffffffffffffffffffffffffffffffff168173ffffffffffffffffffffffffffffffffffffffff1603610854576040517f08c379a000000000000000000000000000000000000000000000000000000000815260040161084b906110f1565b60405180910390fd5b61085d81610960565b50565b600160009054906101000a900473ffffffffffffffffffffffffffffffffffffffff1681565b61088e610b04565b73ffffffffffffffffffffffffffffffffffffffff166108ac61056d565b73ffffffffffffffffffffffffffffffffffffffff1614610902576040517f08c379a00000000000000000000000000000000000000000000000000000000081526004016108f99061115d565b60405180910390fd5b565b6000600960008373ffffffffffffffffffffffffffffffffffffffff1673ffffffffffffffffffffffffffffffffffffffff1681526020019081526020016000205461094f83610a24565b610959919061104b565b9050919050565b60008060009054906101000a900473ffffffffffffffffffffffffffffffffffffffff169050816000806101000a81548173ffffffffffffffffffffffffffffffffffffffff021916908373ffffffffffffffffffffffffffffffffffffffff1602179055508173ffffffffffffffffffffffffffffffffffffffff168173ffffffffffffffffffffffffffffffffffffffff167f8be0079c531659141344cd1fd0a4f28419497f9722a3daafe3b4186f6b6457e060405160405180910390a35050565b6000600554421015610a395760009050610aff565b600654421115610a8a57600860008373ffffffffffffffffffffffffffffffffffffffff1673ffffffffffffffffffffffffffffffffffffffff168152602001908152602001600020549050610aff565b600554600654610a9a919061104b565b60055442610aa8919061104b565b600860008573ffffffffffffffffffffffffffffffffffffffff1673ffffffffffffffffffffffffffffffffffffffff16815260200190815260200160002054610af2919061117d565b610afc9190610fae565b90505b919050565b600033905090565b6000819050919050565b610b1f81610b0c565b82525050565b6000602082019050610b3a6000830184610b16565b92915050565b600073ffffffffffffffffffffffffffffffffffffffff82169050919050565b6000610b6b82610b40565b9050919050565b610b7b81610b60565b82525050565b6000602082019050610b966000830184610b72565b92915050565b600080fd5b610baa81610b60565b8114610bb557600080fd5b50565b600081359050610bc781610ba1565b92915050565b600060208284031215610be357610be2610b9c565b5b6000610bf184828501610bb8565b91505092915050565b610c0381610b0c565b8114610c0e57600080fd5b50565b600081359050610c2081610bfa565b92915050565b600060208284031215610c3c57610c3b610b9c565b5b6000610c4a84828501610c11565b91505092915050565b6000819050919050565b6000610c78610c73610c6e84610b40565b610c53565b610b40565b9050919050565b6000610c8a82610c5d565b9050919050565b6000610c9c82610c7f565b9050919050565b610cac81610c91565b82525050565b6000602082019050610cc76000830184610ca3565b92915050565b600082825260208201905092915050565b7f56657374696e67206e6f74207374617274656400000000000000000000000000600082015250565b6000610d14601383610ccd565b9150610d1f82610cde565b602082019050919050565b60006020820190508181036000830152610d4381610d07565b9050919050565b7f4e487b7100000000000000000000000000000000000000000000000000000000600052601160045260246000fd5b6000610d8482610b0c565b9150610d8f83610b0c565b9250828201905080821115610da757610da6610d4a565b5b92915050565b6000604082019050610dc26000830185610b72565b610dcf6020830184610b16565b9392505050565b60008115159050919050565b610deb81610dd6565b8114610df657600080fd5b50565b600081519050610e0881610de2565b92915050565b600060208284031215610e2457610e23610b9c565b5b6000610e3284828501610df9565b91505092915050565b7f53616c6520706572696f6420696e76616c696400000000000000000000000000600082015250565b6000610e71601383610ccd565b9150610e7c82610e3b565b602082019050919050565b60006020820190508181036000830152610ea081610e64565b9050919050565b7f546f6b656e20616d6f756e74206d757374206265203e20300000000000000000600082015250565b6000610edd601883610ccd565b9150610ee882610ea7565b602082019050919050565b60006020820190508181036000830152610f0c81610ed0565b9050919050565b7f4e6f7420656e6f75676820746f6b656e73206c65667400000000000000000000600082015250565b6000610f49601683610ccd565b9150610f5482610f13565b602082019050919050565b60006020820190508181036000830152610f7881610f3c565b9050919050565b7f4e487b7100000000000000000000000000000000000000000000000000000000600052601260045260246000fd5b6000610fb982610b0c565b9150610fc483610b0c565b925082610fd457610fd3610f7f565b5b828204905092915050565b7f496e73756666696369656e74204554482073656e740000000000000000000000600082015250565b6000611015601583610ccd565b915061102082610fdf565b602082019050919050565b6000602082019050818103600083015261104481611008565b9050919050565b600061105682610b0c565b915061106183610b0c565b925082820390508181111561107957611078610d4a565b5b92915050565b7f4f776e61626c653a206e6577206f776e657220697320746865207a65726f206160008201527f6464726573730000000000000000000000000000000000000000000000000000602082015250565b60006110db602683610ccd565b91506110e68261107f565b604082019050919050565b6000602082019050818103600083015261110a816110ce565b9050919050565b7f4f776e61626c653a2063616c6c6572206973206e6f7420746865206f776e6572600082015250565b6000611147602083610ccd565b915061115282611111565b602082019050919050565b600060208201905081810360008301526111768161113a565b9050919050565b600061118882610b0c565b915061119383610b0c565b92508282026111a181610b0c565b915082820484148315176111b8576111b7610d4a565b5b509291505056fea26469706673582212208d8e109d9d96d0f8f10efccae0d0c7d026e0347b3117567bc0a8350a1f6c37cc64736f6c63430008130033a2646970667358221220d4d68cdcbc39b12ef8fd372df4477a8da89f96d761e87f767d6d3b425895bda064736f6c63430008130033",
  "linkReferences": {},
  "deployedLinkReferences": {}
}