{
  "_format": "hh-sol-artifact-1",
  "contractName": "Launchpad",
  "sourceName": "contracts/LaunchpadFactory.sol",
  "abi": [
    {
      "inputs": [
        {
          "internalType": "address",
          "name": "_owner",
          "type": "address"
        },
        {
          "internalType": "address",
          "name": "_token",
          "type": "address"
        },
        {
          "internalType": "uint256",
          "name": "_totalAmount",
          "type": "uint256"
        },
        {
          "internalType": "uint256",
          "name": "_saleStart",
          "type": "uint256"
        },
        {
          "internalType": "uint256",
          "name": "_saleEnd",
          "type": "uint256"
        },
        {
          "internalType": "uint256",
          "name": "_vestingStart",
          "type": "uint256"
        },
        {
          "internalType": "uint256",
          "name": "_vestingEnd",
          "type": "uint256"
        },
        {
          "internalType": "uint256",
          "name": "_ratio",
          "type": "uint256"
        }
      ],
      "stateMutability": "nonpayable",
      "type": "constructor"
    },
    {
      "inputs": [
        {
          "internalType": "address",
          "name": "",
          "type": "address"
        }
      ],
      "name": "amountSold",
      "outputs": [
        {
          "internalType": "uint256",
          "name": "",
          "type": "uint256"
        }
      ],
      "stateMutability": "view",
      "type": "function"
    },
    {
      "inputs": [],
      "name": "buy",
      "outputs": [],
      "stateMutability": "payable",
      "type": "function"
    },
    {
      "inputs": [],
      "name": "claim",
      "outputs": [],
      "stateMutability": "nonpayable",
      "type": "function"
    },
    {
      "inputs": [
        {
          "internalType": "address",
          "name": "",
          "type": "address"
        }
      ],
      "name": "claimed",
      "outputs": [
        {
          "internalType": "uint256",
          "name": "",
          "type": "uint256"
        }
      ],
      "stateMutability": "view",
      "type": "function"
    },
    {
      "inputs": [
        {
          "internalType": "address",
          "name": "address_",
          "type": "address"
        }
      ],
      "name": "outstanding",
      "outputs": [
        {
          "internalType": "uint256",
          "name": "",
          "type": "uint256"
        }
      ],
      "stateMutability": "view",
      "type": "function"
    },
    {
      "inputs": [],
      "name": "owner",
      "outputs": [
        {
          "internalType": "address",
          "name": "",
          "type": "address"
        }
      ],
      "stateMutability": "view",
      "type": "function"
    },
    {
      "inputs": [],
      "name": "ratio",
      "outputs": [
        {
          "internalType": "uint256",
          "name": "",
          "type": "uint256"
        }
      ],
      "stateMutability": "view",
      "type": "function"
    },
    {
      "inputs": [],
      "name": "saleEnd",
      "outputs": [
        {
          "internalType": "uint256",
          "name": "",
          "type": "uint256"
        }
      ],
      "stateMutability": "view",
      "type": "function"
    },
    {
      "inputs": [],
      "name": "saleStart",
      "outputs": [
        {
          "internalType": "uint256",
          "name": "",
          "type": "uint256"
        }
      ],
      "stateMutability": "view",
      "type": "function"
    },
    {
      "inputs": [],
      "name": "token",
      "outputs": [
        {
          "internalType": "contract IERC20",
          "name": "",
          "type": "address"
        }
      ],
      "stateMutability": "view",
      "type": "function"
    },
    {
      "inputs": [],
      "name": "totalAmount",
      "outputs": [
        {
          "internalType": "uint256",
          "name": "",
          "type": "uint256"
        }
      ],
      "stateMutability": "view",
      "type": "function"
    },
    {
      "inputs": [
        {
          "internalType": "address",
          "name": "newOwner",
          "type": "address"
        }
      ],
      "name": "transferOwnership",
      "outputs": [],
      "stateMutability": "nonpayable",
      "type": "function"
    },
    {
      "inputs": [],
      "name": "vestingEnd",
      "outputs": [
        {
          "internalType": "uint256",
          "name": "",
          "type": "uint256"
        }
      ],
      "stateMutability": "view",
      "type": "function"
    },
    {
      "inputs": [],
      "name": "vestingStart",
      "outputs": [
        {
          "internalType": "uint256",
          "name": "",
          "type": "uint256"
        }
      ],
      "stateMutability": "view",
      "type": "function"
    },
    {
      "inputs": [],
      "name": "withdraw",
      "outputs": [],
      "stateMutability": "nonpayable",
      "type": "function"
    }
  ],
  "bytecode": "0x60806040523480156200001157600080fd5b506040516200130d3803806200130d833981810160405281019062000037919062000195565b876000806101000a81548173ffffffffffffffffffffffffffffffffffffffff021916908373ffffffffffffffffffffffffffffffffffffffff16021790555086600160006101000a81548173ffffffffffffffffffffffffffffffffffffffff021916908373ffffffffffffffffffffffffffffffffffffffff16021790555085600281905550846003819055508360048190555082600581905550816006819055508060078190555050505050505050506200025e565b600080fd5b600073ffffffffffffffffffffffffffffffffffffffff82169050919050565b60006200012282620000f5565b9050919050565b620001348162000115565b81146200014057600080fd5b50565b600081519050620001548162000129565b92915050565b6000819050919050565b6200016f816200015a565b81146200017b57600080fd5b50565b6000815190506200018f8162000164565b92915050565b600080600080600080600080610100898b031215620001b957620001b8620000f0565b5b6000620001c98b828c0162000143565b9850506020620001dc8b828c0162000143565b9750506040620001ef8b828c016200017e565b9650506060620002028b828c016200017e565b9550506080620002158b828c016200017e565b94505060a0620002288b828c016200017e565b93505060c06200023b8b828c016200017e565b92505060e06200024e8b828c016200017e565b9150509295985092959890939650565b61109f806200026e6000396000f3fe6080604052600436106100e85760003560e01c8063a6f2ae3a1161008a578063de58bafa11610059578063de58bafa1461028f578063e6bd67d6146102cc578063f2fde38b14610309578063fc0c546a14610332576100e8565b8063a6f2ae3a146101f2578063ab0bcc41146101fc578063c10b935814610227578063c884ef8314610252576100e8565b80634e71d92d116100c65780634e71d92d1461015a57806371ca337d1461017157806384a1931f1461019c5780638da5cb5b146101c7576100e8565b80631a39d8ef146100ed578063254800d4146101185780633ccfd60b14610143575b600080fd5b3480156100f957600080fd5b5061010261035d565b60405161010f9190610a94565b60405180910390f35b34801561012457600080fd5b5061012d610363565b60405161013a9190610a94565b60405180910390f35b34801561014f57600080fd5b50610158610369565b005b34801561016657600080fd5b5061016f610466565b005b34801561017d57600080fd5b506101866105b2565b6040516101939190610a94565b60405180910390f35b3480156101a857600080fd5b506101b16105b8565b6040516101be9190610a94565b60405180910390f35b3480156101d357600080fd5b506101dc6105be565b6040516101e99190610af0565b60405180910390f35b6101fa6105e2565b005b34801561020857600080fd5b50610211610741565b60405161021e9190610a94565b60405180910390f35b34801561023357600080fd5b5061023c610747565b6040516102499190610a94565b60405180910390f35b34801561025e57600080fd5b5061027960048036038101906102749190610b3c565b61074d565b6040516102869190610a94565b60405180910390f35b34801561029b57600080fd5b506102b660048036038101906102b19190610b3c565b610765565b6040516102c39190610a94565b60405180910390f35b3480156102d857600080fd5b506102f360048036038101906102ee9190610b3c565b6107c1565b6040516103009190610a94565b60405180910390f35b34801561031557600080fd5b50610330600480360381019061032b9190610b3c565b6107d9565b005b34801561033e57600080fd5b50610347610919565b6040516103549190610bc8565b60405180910390f35b60025481565b60055481565b60008054906101000a900473ffffffffffffffffffffffffffffffffffffffff1673ffffffffffffffffffffffffffffffffffffffff163373ffffffffffffffffffffffffffffffffffffffff16146103f7576040517f08c379a00000000000000000000000000000000000000000000000000000000081526004016103ee90610c66565b60405180910390fd5b600047905060008054906101000a900473ffffffffffffffffffffffffffffffffffffffff1673ffffffffffffffffffffffffffffffffffffffff166108fc829081150290604051600060405180830381858888f19350505050158015610462573d6000803e3d6000fd5b5050565b6005544210156104ab576040517f08c379a00000000000000000000000000000000000000000000000000000000081526004016104a290610cd2565b60405180910390fd5b60006104b63361093f565b905080600960003373ffffffffffffffffffffffffffffffffffffffff1673ffffffffffffffffffffffffffffffffffffffff16815260200190815260200160002060008282546105079190610d21565b92505081905550600160009054906101000a900473ffffffffffffffffffffffffffffffffffffffff1673ffffffffffffffffffffffffffffffffffffffff1663a9059cbb33836040518363ffffffff1660e01b815260040161056b929190610d55565b6020604051808303816000875af115801561058a573d6000803e3d6000fd5b505050506040513d601f19601f820116820180604052508101906105ae9190610db6565b5050565b60075481565b60065481565b60008054906101000a900473ffffffffffffffffffffffffffffffffffffffff1681565b60035442101580156105f657506004544211155b610635576040517f08c379a000000000000000000000000000000000000000000000000000000000815260040161062c90610e2f565b60405180910390fd5b6000600754346106459190610e4f565b90506000811161068a576040517f08c379a000000000000000000000000000000000000000000000000000000000815260040161068190610edd565b60405180910390fd5b8060025410156106cf576040517f08c379a00000000000000000000000000000000000000000000000000000000081526004016106c690610f49565b60405180910390fd5b80600860003373ffffffffffffffffffffffffffffffffffffffff1673ffffffffffffffffffffffffffffffffffffffff168152602001908152602001600020600082825461071e9190610d21565b9250508190555080600260008282546107379190610f69565b9250508190555050565b60035481565b60045481565b60096020528060005260406000206000915090505481565b60006107708261099b565b600860008473ffffffffffffffffffffffffffffffffffffffff1673ffffffffffffffffffffffffffffffffffffffff168152602001908152602001600020546107ba9190610f69565b9050919050565b60086020528060005260406000206000915090505481565b60008054906101000a900473ffffffffffffffffffffffffffffffffffffffff1673ffffffffffffffffffffffffffffffffffffffff163373ffffffffffffffffffffffffffffffffffffffff1614610867576040517f08c379a000000000000000000000000000000000000000000000000000000000815260040161085e90610c66565b60405180910390fd5b600073ffffffffffffffffffffffffffffffffffffffff168173ffffffffffffffffffffffffffffffffffffffff16036108d6576040517f08c379a00000000000000000000000000000000000000000000000000000000081526004016108cd90610fe9565b60405180910390fd5b806000806101000a81548173ffffffffffffffffffffffffffffffffffffffff021916908373ffffffffffffffffffffffffffffffffffffffff16021790555050565b600160009054906101000a900473ffffffffffffffffffffffffffffffffffffffff1681565b6000600960008373ffffffffffffffffffffffffffffffffffffffff1673ffffffffffffffffffffffffffffffffffffffff1681526020019081526020016000205461098a8361099b565b6109949190610f69565b9050919050565b60006005544210156109b05760009050610a76565b600654421115610a0157600860008373ffffffffffffffffffffffffffffffffffffffff1673ffffffffffffffffffffffffffffffffffffffff168152602001908152602001600020549050610a76565b600554600654610a119190610f69565b60055442610a1f9190610f69565b600860008573ffffffffffffffffffffffffffffffffffffffff1673ffffffffffffffffffffffffffffffffffffffff16815260200190815260200160002054610a699190610e4f565b610a739190611038565b90505b919050565b6000819050919050565b610a8e81610a7b565b82525050565b6000602082019050610aa96000830184610a85565b92915050565b600073ffffffffffffffffffffffffffffffffffffffff82169050919050565b6000610ada82610aaf565b9050919050565b610aea81610acf565b82525050565b6000602082019050610b056000830184610ae1565b92915050565b600080fd5b610b1981610acf565b8114610b2457600080fd5b50565b600081359050610b3681610b10565b92915050565b600060208284031215610b5257610b51610b0b565b5b6000610b6084828501610b27565b91505092915050565b6000819050919050565b6000610b8e610b89610b8484610aaf565b610b69565b610aaf565b9050919050565b6000610ba082610b73565b9050919050565b6000610bb282610b95565b9050919050565b610bc281610ba7565b82525050565b6000602082019050610bdd6000830184610bb9565b92915050565b600082825260208201905092915050565b7f4f6e6c7920746865206f776e65722063616e2063616c6c20746869732066756e60008201527f6374696f6e000000000000000000000000000000000000000000000000000000602082015250565b6000610c50602583610be3565b9150610c5b82610bf4565b604082019050919050565b60006020820190508181036000830152610c7f81610c43565b9050919050565b7f56657374696e67206e6f74207374617274656400000000000000000000000000600082015250565b6000610cbc601383610be3565b9150610cc782610c86565b602082019050919050565b60006020820190508181036000830152610ceb81610caf565b9050919050565b7f4e487b7100000000000000000000000000000000000000000000000000000000600052601160045260246000fd5b6000610d2c82610a7b565b9150610d3783610a7b565b9250828201905080821115610d4f57610d4e610cf2565b5b92915050565b6000604082019050610d6a6000830185610ae1565b610d776020830184610a85565b9392505050565b60008115159050919050565b610d9381610d7e565b8114610d9e57600080fd5b50565b600081519050610db081610d8a565b92915050565b600060208284031215610dcc57610dcb610b0b565b5b6000610dda84828501610da1565b91505092915050565b7f53616c6520706572696f6420696e76616c696400000000000000000000000000600082015250565b6000610e19601383610be3565b9150610e2482610de3565b602082019050919050565b60006020820190508181036000830152610e4881610e0c565b9050919050565b6000610e5a82610a7b565b9150610e6583610a7b565b9250828202610e7381610a7b565b91508282048414831517610e8a57610e89610cf2565b5b5092915050565b7f546f6b656e20616d6f756e74206d757374206265203e20300000000000000000600082015250565b6000610ec7601883610be3565b9150610ed282610e91565b602082019050919050565b60006020820190508181036000830152610ef681610eba565b9050919050565b7f4e6f7420656e6f75676820746f6b656e73206c65667400000000000000000000600082015250565b6000610f33601683610be3565b9150610f3e82610efd565b602082019050919050565b60006020820190508181036000830152610f6281610f26565b9050919050565b6000610f7482610a7b565b9150610f7f83610a7b565b9250828203905081811115610f9757610f96610cf2565b5b92915050565b7f43616e2774207472616e7366657220746f207a65726f20616464726573730000600082015250565b6000610fd3601e83610be3565b9150610fde82610f9d565b602082019050919050565b6000602082019050818103600083015261100281610fc6565b9050919050565b7f4e487b7100000000000000000000000000000000000000000000000000000000600052601260045260246000fd5b600061104382610a7b565b915061104e83610a7b565b92508261105e5761105d611009565b5b82820490509291505056fea2646970667358221220a05f291b8e68281066e03484fa1762868f8b975fd45250f9d8c758e07f21ac3464736f6c63430008130033",
  "linkReferences": {},
  "deployedLinkReferences": {}
}