{
  "_format": "hh-sol-artifact-1",
  "contractName": "Launchpad",
  "sourceName": "contracts/LaunchpadFactory.sol",
  "abi": [
    {
      "inputs": [
        {
          "internalType": "address",
          "name": "_owner",
          "type": "address"
        },
        {
          "internalType": "address",
          "name": "_token",
          "type": "address"
        },
        {
          "internalType": "uint256",
          "name": "_totalAmount",
          "type": "uint256"
        },
        {
          "internalType": "uint256",
          "name": "_saleStart",
          "type": "uint256"
        },
        {
          "internalType": "uint256",
          "name": "_saleEnd",
          "type": "uint256"
        },
        {
          "internalType": "uint256",
          "name": "_vestingStart",
          "type": "uint256"
        },
        {
          "internalType": "uint256",
          "name": "_vestingEnd",
          "type": "uint256"
        },
        {
          "internalType": "uint256",
          "name": "_ratio",
          "type": "uint256"
        }
      ],
      "stateMutability": "nonpayable",
      "type": "constructor"
    },
    {
      "inputs": [
        {
          "internalType": "address",
          "name": "",
          "type": "address"
        }
      ],
      "name": "amountSold",
      "outputs": [
        {
          "internalType": "uint256",
          "name": "",
          "type": "uint256"
        }
      ],
      "stateMutability": "view",
      "type": "function"
    },
    {
      "inputs": [],
      "name": "buy",
      "outputs": [],
      "stateMutability": "payable",
      "type": "function"
    },
    {
      "inputs": [],
      "name": "claim",
      "outputs": [],
      "stateMutability": "nonpayable",
      "type": "function"
    },
    {
      "inputs": [
        {
          "internalType": "address",
          "name": "",
          "type": "address"
        }
      ],
      "name": "claimed",
      "outputs": [
        {
          "internalType": "uint256",
          "name": "",
          "type": "uint256"
        }
      ],
      "stateMutability": "view",
      "type": "function"
    },
    {
      "inputs": [
        {
          "internalType": "address",
          "name": "address_",
          "type": "address"
        }
      ],
      "name": "outstanding",
      "outputs": [
        {
          "internalType": "uint256",
          "name": "",
          "type": "uint256"
        }
      ],
      "stateMutability": "view",
      "type": "function"
    },
    {
      "inputs": [],
      "name": "owner",
      "outputs": [
        {
          "internalType": "address",
          "name": "",
          "type": "address"
        }
      ],
      "stateMutability": "view",
      "type": "function"
    },
    {
      "inputs": [],
      "name": "ratio",
      "outputs": [
        {
          "internalType": "uint256",
          "name": "",
          "type": "uint256"
        }
      ],
      "stateMutability": "view",
      "type": "function"
    },
    {
      "inputs": [],
      "name": "saleEnd",
      "outputs": [
        {
          "internalType": "uint256",
          "name": "",
          "type": "uint256"
        }
      ],
      "stateMutability": "view",
      "type": "function"
    },
    {
      "inputs": [],
      "name": "saleStart",
      "outputs": [
        {
          "internalType": "uint256",
          "name": "",
          "type": "uint256"
        }
      ],
      "stateMutability": "view",
      "type": "function"
    },
    {
      "inputs": [],
      "name": "token",
      "outputs": [
        {
          "internalType": "contract IERC20",
          "name": "",
          "type": "address"
        }
      ],
      "stateMutability": "view",
      "type": "function"
    },
    {
      "inputs": [],
      "name": "totalAmount",
      "outputs": [
        {
          "internalType": "uint256",
          "name": "",
          "type": "uint256"
        }
      ],
      "stateMutability": "view",
      "type": "function"
    },
    {
      "inputs": [
        {
          "internalType": "address",
          "name": "newOwner",
          "type": "address"
        }
      ],
      "name": "transferOwnership",
      "outputs": [],
      "stateMutability": "nonpayable",
      "type": "function"
    },
    {
      "inputs": [],
      "name": "vestingEnd",
      "outputs": [
        {
          "internalType": "uint256",
          "name": "",
          "type": "uint256"
        }
      ],
      "stateMutability": "view",
      "type": "function"
    },
    {
      "inputs": [],
      "name": "vestingStart",
      "outputs": [
        {
          "internalType": "uint256",
          "name": "",
          "type": "uint256"
        }
      ],
      "stateMutability": "view",
      "type": "function"
    },
    {
      "inputs": [],
      "name": "withdraw",
      "outputs": [],
      "stateMutability": "nonpayable",
      "type": "function"
    }
  ],
  "bytecode": "0x60806040523480156200001157600080fd5b50604051620013bc380380620013bc833981810160405281019062000037919062000195565b876000806101000a81548173ffffffffffffffffffffffffffffffffffffffff021916908373ffffffffffffffffffffffffffffffffffffffff16021790555086600160006101000a81548173ffffffffffffffffffffffffffffffffffffffff021916908373ffffffffffffffffffffffffffffffffffffffff16021790555085600281905550846003819055508360048190555082600581905550816006819055508060078190555050505050505050506200025e565b600080fd5b600073ffffffffffffffffffffffffffffffffffffffff82169050919050565b60006200012282620000f5565b9050919050565b620001348162000115565b81146200014057600080fd5b50565b600081519050620001548162000129565b92915050565b6000819050919050565b6200016f816200015a565b81146200017b57600080fd5b50565b6000815190506200018f8162000164565b92915050565b600080600080600080600080610100898b031215620001b957620001b8620000f0565b5b6000620001c98b828c0162000143565b9850506020620001dc8b828c0162000143565b9750506040620001ef8b828c016200017e565b9650506060620002028b828c016200017e565b9550506080620002158b828c016200017e565b94505060a0620002288b828c016200017e565b93505060c06200023b8b828c016200017e565b92505060e06200024e8b828c016200017e565b9150509295985092959890939650565b61114e806200026e6000396000f3fe6080604052600436106100e85760003560e01c8063a6f2ae3a1161008a578063de58bafa11610059578063de58bafa1461028f578063e6bd67d6146102cc578063f2fde38b14610309578063fc0c546a14610332576100e8565b8063a6f2ae3a146101f2578063ab0bcc41146101fc578063c10b935814610227578063c884ef8314610252576100e8565b80634e71d92d116100c65780634e71d92d1461015a57806371ca337d1461017157806384a1931f1461019c5780638da5cb5b146101c7576100e8565b80631a39d8ef146100ed578063254800d4146101185780633ccfd60b14610143575b600080fd5b3480156100f957600080fd5b5061010261035d565b60405161010f9190610ad7565b60405180910390f35b34801561012457600080fd5b5061012d610363565b60405161013a9190610ad7565b60405180910390f35b34801561014f57600080fd5b50610158610369565b005b34801561016657600080fd5b5061016f610466565b005b34801561017d57600080fd5b506101866105f5565b6040516101939190610ad7565b60405180910390f35b3480156101a857600080fd5b506101b16105fb565b6040516101be9190610ad7565b60405180910390f35b3480156101d357600080fd5b506101dc610601565b6040516101e99190610b33565b60405180910390f35b6101fa610625565b005b34801561020857600080fd5b50610211610784565b60405161021e9190610ad7565b60405180910390f35b34801561023357600080fd5b5061023c61078a565b6040516102499190610ad7565b60405180910390f35b34801561025e57600080fd5b5061027960048036038101906102749190610b7f565b610790565b6040516102869190610ad7565b60405180910390f35b34801561029b57600080fd5b506102b660048036038101906102b19190610b7f565b6107a8565b6040516102c39190610ad7565b60405180910390f35b3480156102d857600080fd5b506102f360048036038101906102ee9190610b7f565b610804565b6040516103009190610ad7565b60405180910390f35b34801561031557600080fd5b50610330600480360381019061032b9190610b7f565b61081c565b005b34801561033e57600080fd5b5061034761095c565b6040516103549190610c0b565b60405180910390f35b60025481565b60055481565b60008054906101000a900473ffffffffffffffffffffffffffffffffffffffff1673ffffffffffffffffffffffffffffffffffffffff163373ffffffffffffffffffffffffffffffffffffffff16146103f7576040517f08c379a00000000000000000000000000000000000000000000000000000000081526004016103ee90610ca9565b60405180910390fd5b600047905060008054906101000a900473ffffffffffffffffffffffffffffffffffffffff1673ffffffffffffffffffffffffffffffffffffffff166108fc829081150290604051600060405180830381858888f19350505050158015610462573d6000803e3d6000fd5b5050565b6005544210156104ab576040517f08c379a00000000000000000000000000000000000000000000000000000000081526004016104a290610d15565b60405180910390fd5b60006104b633610982565b9050600081116104fb576040517f08c379a00000000000000000000000000000000000000000000000000000000081526004016104f290610d81565b60405180910390fd5b80600960003373ffffffffffffffffffffffffffffffffffffffff1673ffffffffffffffffffffffffffffffffffffffff168152602001908152602001600020600082825461054a9190610dd0565b92505081905550600160009054906101000a900473ffffffffffffffffffffffffffffffffffffffff1673ffffffffffffffffffffffffffffffffffffffff1663a9059cbb33836040518363ffffffff1660e01b81526004016105ae929190610e04565b6020604051808303816000875af11580156105cd573d6000803e3d6000fd5b505050506040513d601f19601f820116820180604052508101906105f19190610e65565b5050565b60075481565b60065481565b60008054906101000a900473ffffffffffffffffffffffffffffffffffffffff1681565b600354421015801561063957506004544211155b610678576040517f08c379a000000000000000000000000000000000000000000000000000000000815260040161066f90610ede565b60405180910390fd5b6000600754346106889190610efe565b9050600081116106cd576040517f08c379a00000000000000000000000000000000000000000000000000000000081526004016106c490610f8c565b60405180910390fd5b806002541015610712576040517f08c379a000000000000000000000000000000000000000000000000000000000815260040161070990610ff8565b60405180910390fd5b80600860003373ffffffffffffffffffffffffffffffffffffffff1673ffffffffffffffffffffffffffffffffffffffff16815260200190815260200160002060008282546107619190610dd0565b92505081905550806002600082825461077a9190611018565b9250508190555050565b60035481565b60045481565b60096020528060005260406000206000915090505481565b60006107b3826109de565b600860008473ffffffffffffffffffffffffffffffffffffffff1673ffffffffffffffffffffffffffffffffffffffff168152602001908152602001600020546107fd9190611018565b9050919050565b60086020528060005260406000206000915090505481565b60008054906101000a900473ffffffffffffffffffffffffffffffffffffffff1673ffffffffffffffffffffffffffffffffffffffff163373ffffffffffffffffffffffffffffffffffffffff16146108aa576040517f08c379a00000000000000000000000000000000000000000000000000000000081526004016108a190610ca9565b60405180910390fd5b600073ffffffffffffffffffffffffffffffffffffffff168173ffffffffffffffffffffffffffffffffffffffff1603610919576040517f08c379a000000000000000000000000000000000000000000000000000000000815260040161091090611098565b60405180910390fd5b806000806101000a81548173ffffffffffffffffffffffffffffffffffffffff021916908373ffffffffffffffffffffffffffffffffffffffff16021790555050565b600160009054906101000a900473ffffffffffffffffffffffffffffffffffffffff1681565b6000600960008373ffffffffffffffffffffffffffffffffffffffff1673ffffffffffffffffffffffffffffffffffffffff168152602001908152602001600020546109cd836109de565b6109d79190611018565b9050919050565b60006005544210156109f35760009050610ab9565b600654421115610a4457600860008373ffffffffffffffffffffffffffffffffffffffff1673ffffffffffffffffffffffffffffffffffffffff168152602001908152602001600020549050610ab9565b600554600654610a549190611018565b60055442610a629190611018565b600860008573ffffffffffffffffffffffffffffffffffffffff1673ffffffffffffffffffffffffffffffffffffffff16815260200190815260200160002054610aac9190610efe565b610ab691906110e7565b90505b919050565b6000819050919050565b610ad181610abe565b82525050565b6000602082019050610aec6000830184610ac8565b92915050565b600073ffffffffffffffffffffffffffffffffffffffff82169050919050565b6000610b1d82610af2565b9050919050565b610b2d81610b12565b82525050565b6000602082019050610b486000830184610b24565b92915050565b600080fd5b610b5c81610b12565b8114610b6757600080fd5b50565b600081359050610b7981610b53565b92915050565b600060208284031215610b9557610b94610b4e565b5b6000610ba384828501610b6a565b91505092915050565b6000819050919050565b6000610bd1610bcc610bc784610af2565b610bac565b610af2565b9050919050565b6000610be382610bb6565b9050919050565b6000610bf582610bd8565b9050919050565b610c0581610bea565b82525050565b6000602082019050610c206000830184610bfc565b92915050565b600082825260208201905092915050565b7f4f6e6c7920746865206f776e65722063616e2063616c6c20746869732066756e60008201527f6374696f6e000000000000000000000000000000000000000000000000000000602082015250565b6000610c93602583610c26565b9150610c9e82610c37565b604082019050919050565b60006020820190508181036000830152610cc281610c86565b9050919050565b7f56657374696e67206e6f74207374617274656400000000000000000000000000600082015250565b6000610cff601383610c26565b9150610d0a82610cc9565b602082019050919050565b60006020820190508181036000830152610d2e81610cf2565b9050919050565b7f436c61696d61626c6520616d6f756e74206d757374206265203e203000000000600082015250565b6000610d6b601c83610c26565b9150610d7682610d35565b602082019050919050565b60006020820190508181036000830152610d9a81610d5e565b9050919050565b7f4e487b7100000000000000000000000000000000000000000000000000000000600052601160045260246000fd5b6000610ddb82610abe565b9150610de683610abe565b9250828201905080821115610dfe57610dfd610da1565b5b92915050565b6000604082019050610e196000830185610b24565b610e266020830184610ac8565b9392505050565b60008115159050919050565b610e4281610e2d565b8114610e4d57600080fd5b50565b600081519050610e5f81610e39565b92915050565b600060208284031215610e7b57610e7a610b4e565b5b6000610e8984828501610e50565b91505092915050565b7f53616c6520706572696f6420696e76616c696400000000000000000000000000600082015250565b6000610ec8601383610c26565b9150610ed382610e92565b602082019050919050565b60006020820190508181036000830152610ef781610ebb565b9050919050565b6000610f0982610abe565b9150610f1483610abe565b9250828202610f2281610abe565b91508282048414831517610f3957610f38610da1565b5b5092915050565b7f546f6b656e20616d6f756e74206d757374206265203e20300000000000000000600082015250565b6000610f76601883610c26565b9150610f8182610f40565b602082019050919050565b60006020820190508181036000830152610fa581610f69565b9050919050565b7f4e6f7420656e6f75676820746f6b656e73206c65667400000000000000000000600082015250565b6000610fe2601683610c26565b9150610fed82610fac565b602082019050919050565b6000602082019050818103600083015261101181610fd5565b9050919050565b600061102382610abe565b915061102e83610abe565b925082820390508181111561104657611045610da1565b5b92915050565b7f43616e2774207472616e7366657220746f207a65726f20616464726573730000600082015250565b6000611082601e83610c26565b915061108d8261104c565b602082019050919050565b600060208201905081810360008301526110b181611075565b9050919050565b7f4e487b7100000000000000000000000000000000000000000000000000000000600052601260045260246000fd5b60006110f282610abe565b91506110fd83610abe565b92508261110d5761110c6110b8565b5b82820490509291505056fea2646970667358221220026a63f718a176d643f02923e479cf662afaf60bac95ae6a37d47db7b6f34e3064736f6c63430008130033",
  "linkReferences": {},
  "deployedLinkReferences": {}
}