{
  "_format": "hh-sol-artifact-1",
  "contractName": "LaunchpadFactory",
  "sourceName": "contracts/LaunchpadFactory.sol",
  "abi": [
    {
      "anonymous": false,
      "inputs": [
        {
          "indexed": true,
          "internalType": "address",
          "name": "owner",
          "type": "address"
        },
        {
          "indexed": true,
          "internalType": "address",
          "name": "launchpad",
          "type": "address"
        },
        {
          "indexed": true,
          "internalType": "address",
          "name": "token",
          "type": "address"
        }
      ],
      "name": "LaunchpadCreated",
      "type": "event"
    },
    {
      "anonymous": false,
      "inputs": [
        {
          "indexed": true,
          "internalType": "address",
          "name": "previousOwner",
          "type": "address"
        },
        {
          "indexed": true,
          "internalType": "address",
          "name": "newOwner",
          "type": "address"
        }
      ],
      "name": "OwnershipTransferred",
      "type": "event"
    },
    {
      "inputs": [
        {
          "internalType": "address",
          "name": "launchpadOwner",
          "type": "address"
        },
        {
          "internalType": "address",
          "name": "token",
          "type": "address"
        },
        {
          "internalType": "uint256",
          "name": "totalAmount",
          "type": "uint256"
        },
        {
          "internalType": "uint256",
          "name": "saleStart",
          "type": "uint256"
        },
        {
          "internalType": "uint256",
          "name": "saleEnd",
          "type": "uint256"
        },
        {
          "internalType": "uint256",
          "name": "vestingStart",
          "type": "uint256"
        },
        {
          "internalType": "uint256",
          "name": "vestingEnd",
          "type": "uint256"
        },
        {
          "internalType": "uint256",
          "name": "ratio",
          "type": "uint256"
        }
      ],
      "name": "createLaunchpad",
      "outputs": [
        {
          "internalType": "address",
          "name": "",
          "type": "address"
        }
      ],
      "stateMutability": "payable",
      "type": "function"
    },
    {
      "inputs": [],
      "name": "owner",
      "outputs": [
        {
          "internalType": "address",
          "name": "",
          "type": "address"
        }
      ],
      "stateMutability": "view",
      "type": "function"
    },
    {
      "inputs": [],
      "name": "renounceOwnership",
      "outputs": [],
      "stateMutability": "nonpayable",
      "type": "function"
    },
    {
      "inputs": [
        {
          "internalType": "address",
          "name": "newOwner",
          "type": "address"
        }
      ],
      "name": "transferOwnership",
      "outputs": [],
      "stateMutability": "nonpayable",
      "type": "function"
    },
    {
      "inputs": [],
      "name": "withdraw",
      "outputs": [],
      "stateMutability": "nonpayable",
      "type": "function"
    }
  ],
  "bytecode": "0x608060405234801561001057600080fd5b5061002d61002261003260201b60201c565b61003a60201b60201c565b6100fe565b600033905090565b60008060009054906101000a900473ffffffffffffffffffffffffffffffffffffffff169050816000806101000a81548173ffffffffffffffffffffffffffffffffffffffff021916908373ffffffffffffffffffffffffffffffffffffffff1602179055508173ffffffffffffffffffffffffffffffffffffffff168173ffffffffffffffffffffffffffffffffffffffff167f8be0079c531659141344cd1fd0a4f28419497f9722a3daafe3b4186f6b6457e060405160405180910390a35050565b611f538061010d6000396000f3fe608060405260043610620000505760003560e01c80633ccfd60b1462000055578063715018a6146200006f5780638da5cb5b1462000089578063cf9c360f14620000b9578063f2fde38b14620000ef575b600080fd5b3480156200006257600080fd5b506200006d6200011d565b005b3480156200007c57600080fd5b506200008762000186565b005b3480156200009657600080fd5b50620000a16200019e565b604051620000b09190620005de565b60405180910390f35b620000d76004803603810190620000d191906200066c565b620001c7565b604051620000e69190620005de565b60405180910390f35b348015620000fc57600080fd5b506200011b600480360381019062000115919062000735565b620003b0565b005b620001276200043a565b60004790506000620001386200019e565b90508073ffffffffffffffffffffffffffffffffffffffff166108fc839081150290604051600060405180830381858888f1935050505015801562000181573d6000803e3d6000fd5b505050565b620001906200043a565b6200019c6000620004bf565b565b60008060009054906101000a900473ffffffffffffffffffffffffffffffffffffffff16905090565b6000662386f26fc10000341462000215576040517f08c379a00000000000000000000000000000000000000000000000000000000081526004016200020c90620007c8565b60405180910390fd5b8486106200025a576040517f08c379a000000000000000000000000000000000000000000000000000000000815260040162000251906200083a565b60405180910390fd5b8385106200029f576040517f08c379a00000000000000000000000000000000000000000000000000000000081526004016200029690620008ac565b60405180910390fd5b828410620002e4576040517f08c379a0000000000000000000000000000000000000000000000000000000008152600401620002db906200091e565b60405180910390fd5b60008989898989898989604051620002fc906200058b565b6200030f98979695949392919062000951565b604051809103906000f0801580156200032c573d6000803e3d6000fd5b5090508873ffffffffffffffffffffffffffffffffffffffff168173ffffffffffffffffffffffffffffffffffffffff168b73ffffffffffffffffffffffffffffffffffffffff167f93e8beb44821f7ab2a28ab1d483e36c7e32452e97430128582eb65f13e6b636c60405160405180910390a48091505098975050505050505050565b620003ba6200043a565b600073ffffffffffffffffffffffffffffffffffffffff168173ffffffffffffffffffffffffffffffffffffffff16036200042c576040517f08c379a0000000000000000000000000000000000000000000000000000000008152600401620004239062000a55565b60405180910390fd5b6200043781620004bf565b50565b6200044462000583565b73ffffffffffffffffffffffffffffffffffffffff16620004646200019e565b73ffffffffffffffffffffffffffffffffffffffff1614620004bd576040517f08c379a0000000000000000000000000000000000000000000000000000000008152600401620004b49062000ac7565b60405180910390fd5b565b60008060009054906101000a900473ffffffffffffffffffffffffffffffffffffffff169050816000806101000a81548173ffffffffffffffffffffffffffffffffffffffff021916908373ffffffffffffffffffffffffffffffffffffffff1602179055508173ffffffffffffffffffffffffffffffffffffffff168173ffffffffffffffffffffffffffffffffffffffff167f8be0079c531659141344cd1fd0a4f28419497f9722a3daafe3b4186f6b6457e060405160405180910390a35050565b600033905090565b6114348062000aea83390190565b600073ffffffffffffffffffffffffffffffffffffffff82169050919050565b6000620005c68262000599565b9050919050565b620005d881620005b9565b82525050565b6000602082019050620005f56000830184620005cd565b92915050565b600080fd5b6200060b81620005b9565b81146200061757600080fd5b50565b6000813590506200062b8162000600565b92915050565b6000819050919050565b620006468162000631565b81146200065257600080fd5b50565b60008135905062000666816200063b565b92915050565b600080600080600080600080610100898b03121562000690576200068f620005fb565b5b6000620006a08b828c016200061a565b9850506020620006b38b828c016200061a565b9750506040620006c68b828c0162000655565b9650506060620006d98b828c0162000655565b9550506080620006ec8b828c0162000655565b94505060a0620006ff8b828c0162000655565b93505060c0620007128b828c0162000655565b92505060e0620007258b828c0162000655565b9150509295985092959890939650565b6000602082840312156200074e576200074d620005fb565b5b60006200075e848285016200061a565b91505092915050565b600082825260208201905092915050565b7f302e303120455448206665652069732072657175697265640000000000000000600082015250565b6000620007b060188362000767565b9150620007bd8262000778565b602082019050919050565b60006020820190508181036000830152620007e381620007a1565b9050919050565b7f496e76616c69642073616c6520706572696f6400000000000000000000000000600082015250565b60006200082260138362000767565b91506200082f82620007ea565b602082019050919050565b60006020820190508181036000830152620008558162000813565b9050919050565b7f56657374696e6720737461727473206265666f72652073616c6520656e640000600082015250565b600062000894601e8362000767565b9150620008a1826200085c565b602082019050919050565b60006020820190508181036000830152620008c78162000885565b9050919050565b7f496e76616c69642076657374696e6720706572696f6400000000000000000000600082015250565b60006200090660168362000767565b91506200091382620008ce565b602082019050919050565b600060208201905081810360008301526200093981620008f7565b9050919050565b6200094b8162000631565b82525050565b60006101008201905062000969600083018b620005cd565b62000978602083018a620005cd565b62000987604083018962000940565b62000996606083018862000940565b620009a5608083018762000940565b620009b460a083018662000940565b620009c360c083018562000940565b620009d260e083018462000940565b9998505050505050505050565b7f4f776e61626c653a206e6577206f776e657220697320746865207a65726f206160008201527f6464726573730000000000000000000000000000000000000000000000000000602082015250565b600062000a3d60268362000767565b915062000a4a82620009df565b604082019050919050565b6000602082019050818103600083015262000a708162000a2e565b9050919050565b7f4f776e61626c653a2063616c6c6572206973206e6f7420746865206f776e6572600082015250565b600062000aaf60208362000767565b915062000abc8262000a77565b602082019050919050565b6000602082019050818103600083015262000ae28162000aa0565b905091905056fe60806040523480156200001157600080fd5b506040516200143438038062001434833981810160405281019062000037919062000195565b876000806101000a81548173ffffffffffffffffffffffffffffffffffffffff021916908373ffffffffffffffffffffffffffffffffffffffff16021790555086600160006101000a81548173ffffffffffffffffffffffffffffffffffffffff021916908373ffffffffffffffffffffffffffffffffffffffff16021790555085600281905550846003819055508360048190555082600581905550816006819055508060078190555050505050505050506200025e565b600080fd5b600073ffffffffffffffffffffffffffffffffffffffff82169050919050565b60006200012282620000f5565b9050919050565b620001348162000115565b81146200014057600080fd5b50565b600081519050620001548162000129565b92915050565b6000819050919050565b6200016f816200015a565b81146200017b57600080fd5b50565b6000815190506200018f8162000164565b92915050565b600080600080600080600080610100898b031215620001b957620001b8620000f0565b5b6000620001c98b828c0162000143565b9850506020620001dc8b828c0162000143565b9750506040620001ef8b828c016200017e565b9650506060620002028b828c016200017e565b9550506080620002158b828c016200017e565b94505060a0620002288b828c016200017e565b93505060c06200023b8b828c016200017e565b92505060e06200024e8b828c016200017e565b9150509295985092959890939650565b6111c6806200026e6000396000f3fe6080604052600436106100e85760003560e01c8063ab0bcc411161008a578063de58bafa11610059578063de58bafa146102a1578063e6bd67d6146102de578063f2fde38b1461031b578063fc0c546a14610344576100e8565b8063ab0bcc41146101f2578063c10b93581461021d578063c884ef8314610248578063d96a094a14610285576100e8565b80634e71d92d116100c65780634e71d92d1461015a57806371ca337d1461017157806384a1931f1461019c5780638da5cb5b146101c7576100e8565b80631a39d8ef146100ed578063254800d4146101185780633ccfd60b14610143575b600080fd5b3480156100f957600080fd5b5061010261036f565b60405161010f9190610af6565b60405180910390f35b34801561012457600080fd5b5061012d610375565b60405161013a9190610af6565b60405180910390f35b34801561014f57600080fd5b5061015861037b565b005b34801561016657600080fd5b5061016f610478565b005b34801561017d57600080fd5b506101866105c4565b6040516101939190610af6565b60405180910390f35b3480156101a857600080fd5b506101b16105ca565b6040516101be9190610af6565b60405180910390f35b3480156101d357600080fd5b506101dc6105d0565b6040516101e99190610b52565b60405180910390f35b3480156101fe57600080fd5b506102076105f4565b6040516102149190610af6565b60405180910390f35b34801561022957600080fd5b506102326105fa565b60405161023f9190610af6565b60405180910390f35b34801561025457600080fd5b5061026f600480360381019061026a9190610b9e565b610600565b60405161027c9190610af6565b60405180910390f35b61029f600480360381019061029a9190610bf7565b610618565b005b3480156102ad57600080fd5b506102c860048036038101906102c39190610b9e565b6107c7565b6040516102d59190610af6565b60405180910390f35b3480156102ea57600080fd5b5061030560048036038101906103009190610b9e565b610823565b6040516103129190610af6565b60405180910390f35b34801561032757600080fd5b50610342600480360381019061033d9190610b9e565b61083b565b005b34801561035057600080fd5b5061035961097b565b6040516103669190610c83565b60405180910390f35b60025481565b60055481565b60008054906101000a900473ffffffffffffffffffffffffffffffffffffffff1673ffffffffffffffffffffffffffffffffffffffff163373ffffffffffffffffffffffffffffffffffffffff1614610409576040517f08c379a000000000000000000000000000000000000000000000000000000000815260040161040090610d21565b60405180910390fd5b600047905060008054906101000a900473ffffffffffffffffffffffffffffffffffffffff1673ffffffffffffffffffffffffffffffffffffffff166108fc829081150290604051600060405180830381858888f19350505050158015610474573d6000803e3d6000fd5b5050565b6005544210156104bd576040517f08c379a00000000000000000000000000000000000000000000000000000000081526004016104b490610d8d565b60405180910390fd5b60006104c8336109a1565b905080600960003373ffffffffffffffffffffffffffffffffffffffff1673ffffffffffffffffffffffffffffffffffffffff16815260200190815260200160002060008282546105199190610ddc565b92505081905550600160009054906101000a900473ffffffffffffffffffffffffffffffffffffffff1673ffffffffffffffffffffffffffffffffffffffff1663a9059cbb33836040518363ffffffff1660e01b815260040161057d929190610e10565b6020604051808303816000875af115801561059c573d6000803e3d6000fd5b505050506040513d601f19601f820116820180604052508101906105c09190610e71565b5050565b60075481565b60065481565b60008054906101000a900473ffffffffffffffffffffffffffffffffffffffff1681565b60035481565b60045481565b60096020528060005260406000206000915090505481565b600354421015801561062c57506004544211155b61066b576040517f08c379a000000000000000000000000000000000000000000000000000000000815260040161066290610eea565b60405180910390fd5b600081116106ae576040517f08c379a00000000000000000000000000000000000000000000000000000000081526004016106a590610f56565b60405180910390fd5b8060025410156106f3576040517f08c379a00000000000000000000000000000000000000000000000000000000081526004016106ea90610fc2565b60405180910390fd5b6000600754826107039190611011565b90506000811180156107155750348111155b610754576040517f08c379a000000000000000000000000000000000000000000000000000000000815260040161074b9061108e565b60405180910390fd5b81600860003373ffffffffffffffffffffffffffffffffffffffff1673ffffffffffffffffffffffffffffffffffffffff16815260200190815260200160002060008282546107a39190610ddc565b9250508190555081600260008282546107bc91906110ae565b925050819055505050565b60006107d2826109fd565b600860008473ffffffffffffffffffffffffffffffffffffffff1673ffffffffffffffffffffffffffffffffffffffff1681526020019081526020016000205461081c91906110ae565b9050919050565b60086020528060005260406000206000915090505481565b60008054906101000a900473ffffffffffffffffffffffffffffffffffffffff1673ffffffffffffffffffffffffffffffffffffffff163373ffffffffffffffffffffffffffffffffffffffff16146108c9576040517f08c379a00000000000000000000000000000000000000000000000000000000081526004016108c090610d21565b60405180910390fd5b600073ffffffffffffffffffffffffffffffffffffffff168173ffffffffffffffffffffffffffffffffffffffff1603610938576040517f08c379a000000000000000000000000000000000000000000000000000000000815260040161092f9061112e565b60405180910390fd5b806000806101000a81548173ffffffffffffffffffffffffffffffffffffffff021916908373ffffffffffffffffffffffffffffffffffffffff16021790555050565b600160009054906101000a900473ffffffffffffffffffffffffffffffffffffffff1681565b6000600960008373ffffffffffffffffffffffffffffffffffffffff1673ffffffffffffffffffffffffffffffffffffffff168152602001908152602001600020546109ec836109fd565b6109f691906110ae565b9050919050565b6000600554421015610a125760009050610ad8565b600654421115610a6357600860008373ffffffffffffffffffffffffffffffffffffffff1673ffffffffffffffffffffffffffffffffffffffff168152602001908152602001600020549050610ad8565b600554600654610a7391906110ae565b60055442610a8191906110ae565b600860008573ffffffffffffffffffffffffffffffffffffffff1673ffffffffffffffffffffffffffffffffffffffff16815260200190815260200160002054610acb919061114e565b610ad59190611011565b90505b919050565b6000819050919050565b610af081610add565b82525050565b6000602082019050610b0b6000830184610ae7565b92915050565b600073ffffffffffffffffffffffffffffffffffffffff82169050919050565b6000610b3c82610b11565b9050919050565b610b4c81610b31565b82525050565b6000602082019050610b676000830184610b43565b92915050565b600080fd5b610b7b81610b31565b8114610b8657600080fd5b50565b600081359050610b9881610b72565b92915050565b600060208284031215610bb457610bb3610b6d565b5b6000610bc284828501610b89565b91505092915050565b610bd481610add565b8114610bdf57600080fd5b50565b600081359050610bf181610bcb565b92915050565b600060208284031215610c0d57610c0c610b6d565b5b6000610c1b84828501610be2565b91505092915050565b6000819050919050565b6000610c49610c44610c3f84610b11565b610c24565b610b11565b9050919050565b6000610c5b82610c2e565b9050919050565b6000610c6d82610c50565b9050919050565b610c7d81610c62565b82525050565b6000602082019050610c986000830184610c74565b92915050565b600082825260208201905092915050565b7f4f6e6c7920746865206f776e65722063616e2063616c6c20746869732066756e60008201527f6374696f6e000000000000000000000000000000000000000000000000000000602082015250565b6000610d0b602583610c9e565b9150610d1682610caf565b604082019050919050565b60006020820190508181036000830152610d3a81610cfe565b9050919050565b7f56657374696e67206e6f74207374617274656400000000000000000000000000600082015250565b6000610d77601383610c9e565b9150610d8282610d41565b602082019050919050565b60006020820190508181036000830152610da681610d6a565b9050919050565b7f4e487b7100000000000000000000000000000000000000000000000000000000600052601160045260246000fd5b6000610de782610add565b9150610df283610add565b9250828201905080821115610e0a57610e09610dad565b5b92915050565b6000604082019050610e256000830185610b43565b610e326020830184610ae7565b9392505050565b60008115159050919050565b610e4e81610e39565b8114610e5957600080fd5b50565b600081519050610e6b81610e45565b92915050565b600060208284031215610e8757610e86610b6d565b5b6000610e9584828501610e5c565b91505092915050565b7f53616c6520706572696f6420696e76616c696400000000000000000000000000600082015250565b6000610ed4601383610c9e565b9150610edf82610e9e565b602082019050919050565b60006020820190508181036000830152610f0381610ec7565b9050919050565b7f546f6b656e20616d6f756e74206d757374206265203e20300000000000000000600082015250565b6000610f40601883610c9e565b9150610f4b82610f0a565b602082019050919050565b60006020820190508181036000830152610f6f81610f33565b9050919050565b7f4e6f7420656e6f75676820746f6b656e73206c65667400000000000000000000600082015250565b6000610fac601683610c9e565b9150610fb782610f76565b602082019050919050565b60006020820190508181036000830152610fdb81610f9f565b9050919050565b7f4e487b7100000000000000000000000000000000000000000000000000000000600052601260045260246000fd5b600061101c82610add565b915061102783610add565b92508261103757611036610fe2565b5b828204905092915050565b7f496e73756666696369656e74204554482073656e740000000000000000000000600082015250565b6000611078601583610c9e565b915061108382611042565b602082019050919050565b600060208201905081810360008301526110a78161106b565b9050919050565b60006110b982610add565b91506110c483610add565b92508282039050818111156110dc576110db610dad565b5b92915050565b7f43616e2774207472616e7366657220746f207a65726f20616464726573730000600082015250565b6000611118601e83610c9e565b9150611123826110e2565b602082019050919050565b600060208201905081810360008301526111478161110b565b9050919050565b600061115982610add565b915061116483610add565b925082820261117281610add565b9150828204841483151761118957611188610dad565b5b509291505056fea26469706673582212201cb3ee705a3525b2c2a627ad646b885f7769d8783dfbb5b945b466e4ad195a8664736f6c63430008130033a2646970667358221220972bf6db248822e08b556ee7cf455077b0e36243e367a0800cd6736ce448ea4164736f6c63430008130033",
  "linkReferences": {},
  "deployedLinkReferences": {}
}